{
  "_format": "hh-sol-artifact-1",
  "contractName": "BuggyNFT",
  "sourceName": "contracts/BuggyNFT.sol",
  "abi": [
    {
      "inputs": [],
      "stateMutability": "nonpayable",
      "type": "constructor"
    },
    {
      "anonymous": false,
      "inputs": [
        {
          "indexed": true,
          "internalType": "uint256",
          "name": "tokenId",
          "type": "uint256"
        },
        {
          "indexed": true,
          "internalType": "address",
          "name": "spender",
          "type": "address"
        }
      ],
      "name": "Approve",
      "type": "event"
    },
    {
      "anonymous": false,
      "inputs": [
        {
          "indexed": true,
          "internalType": "uint256",
          "name": "tokenId",
          "type": "uint256"
        },
        {
          "indexed": true,
          "internalType": "address",
          "name": "owner",
          "type": "address"
        }
      ],
      "name": "Burn",
      "type": "event"
    },
    {
      "anonymous": false,
      "inputs": [
        {
          "indexed": true,
          "internalType": "contract IERC20",
          "name": "asset",
          "type": "address"
        },
        {
          "indexed": true,
          "internalType": "address",
          "name": "receiver",
          "type": "address"
        },
        {
          "indexed": false,
          "internalType": "uint256",
          "name": "amount",
          "type": "uint256"
        }
      ],
      "name": "Collect",
      "type": "event"
    },
    {
      "anonymous": false,
      "inputs": [
        {
          "indexed": true,
          "internalType": "uint256",
          "name": "tokenId",
          "type": "uint256"
        },
        {
          "indexed": true,
          "internalType": "address",
          "name": "owner",
          "type": "address"
        }
      ],
      "name": "Mint",
      "type": "event"
    },
    {
      "anonymous": false,
      "inputs": [
        {
          "indexed": false,
          "internalType": "address",
          "name": "account",
          "type": "address"
        }
      ],
      "name": "Paused",
      "type": "event"
    },
    {
      "anonymous": false,
      "inputs": [
        {
          "indexed": true,
          "internalType": "bytes32",
          "name": "role",
          "type": "bytes32"
        },
        {
          "indexed": true,
          "internalType": "bytes32",
          "name": "previousAdminRole",
          "type": "bytes32"
        },
        {
          "indexed": true,
          "internalType": "bytes32",
          "name": "newAdminRole",
          "type": "bytes32"
        }
      ],
      "name": "RoleAdminChanged",
      "type": "event"
    },
    {
      "anonymous": false,
      "inputs": [
        {
          "indexed": true,
          "internalType": "bytes32",
          "name": "role",
          "type": "bytes32"
        },
        {
          "indexed": true,
          "internalType": "address",
          "name": "account",
          "type": "address"
        },
        {
          "indexed": true,
          "internalType": "address",
          "name": "sender",
          "type": "address"
        }
      ],
      "name": "RoleGranted",
      "type": "event"
    },
    {
      "anonymous": false,
      "inputs": [
        {
          "indexed": true,
          "internalType": "bytes32",
          "name": "role",
          "type": "bytes32"
        },
        {
          "indexed": true,
          "internalType": "address",
          "name": "account",
          "type": "address"
        },
        {
          "indexed": true,
          "internalType": "address",
          "name": "sender",
          "type": "address"
        }
      ],
      "name": "RoleRevoked",
      "type": "event"
    },
    {
      "anonymous": false,
      "inputs": [
        {
          "indexed": true,
          "internalType": "address",
          "name": "owner",
          "type": "address"
        },
        {
          "indexed": true,
          "internalType": "address",
          "name": "receiver",
          "type": "address"
        },
        {
          "indexed": true,
          "internalType": "uint256",
          "name": "tokenId",
          "type": "uint256"
        }
      ],
      "name": "Transfer",
      "type": "event"
    },
    {
      "anonymous": false,
      "inputs": [
        {
          "indexed": false,
          "internalType": "address",
          "name": "account",
          "type": "address"
        }
      ],
      "name": "Unpaused",
      "type": "event"
    },
    {
      "inputs": [],
      "name": "DEFAULT_ADMIN_ROLE",
      "outputs": [
        {
          "internalType": "bytes32",
          "name": "",
          "type": "bytes32"
        }
      ],
      "stateMutability": "view",
      "type": "function"
    },
    {
      "inputs": [],
      "name": "DOMAIN_SEPARATOR",
      "outputs": [
        {
          "internalType": "bytes32",
          "name": "",
          "type": "bytes32"
        }
      ],
      "stateMutability": "view",
      "type": "function"
    },
    {
      "inputs": [],
      "name": "ETHER",
      "outputs": [
        {
          "internalType": "contract IERC20",
          "name": "",
          "type": "address"
        }
      ],
      "stateMutability": "view",
      "type": "function"
    },
    {
      "inputs": [],
      "name": "PAUSER_ROLE",
      "outputs": [
        {
          "internalType": "bytes32",
          "name": "",
          "type": "bytes32"
        }
      ],
      "stateMutability": "view",
      "type": "function"
    },
    {
      "inputs": [],
      "name": "PERMIT_TYPEHASH",
      "outputs": [
        {
          "internalType": "bytes32",
          "name": "",
          "type": "bytes32"
        }
      ],
      "stateMutability": "view",
      "type": "function"
    },
    {
      "inputs": [],
      "name": "PRICE_INCREMENT",
      "outputs": [
        {
          "internalType": "uint256",
          "name": "",
          "type": "uint256"
        }
      ],
      "stateMutability": "view",
      "type": "function"
    },
    {
      "inputs": [],
      "name": "PRICE_INCREMENT_BASIS",
      "outputs": [
        {
          "internalType": "uint256",
          "name": "",
          "type": "uint256"
        }
      ],
      "stateMutability": "view",
      "type": "function"
    },
    {
      "inputs": [],
      "name": "PROTOCOL_FEE",
      "outputs": [
        {
          "internalType": "uint256",
          "name": "",
          "type": "uint256"
        }
      ],
      "stateMutability": "view",
      "type": "function"
    },
    {
      "inputs": [],
      "name": "PROTOCOL_FEE_BASIS",
      "outputs": [
        {
          "internalType": "uint256",
          "name": "",
          "type": "uint256"
        }
      ],
      "stateMutability": "view",
      "type": "function"
    },
    {
      "inputs": [],
      "name": "SELLER_FEE",
      "outputs": [
        {
          "internalType": "uint256",
          "name": "",
          "type": "uint256"
        }
      ],
      "stateMutability": "view",
      "type": "function"
    },
    {
      "inputs": [],
      "name": "SELLER_FEE_BASIS",
      "outputs": [
        {
          "internalType": "uint256",
          "name": "",
          "type": "uint256"
        }
      ],
      "stateMutability": "view",
      "type": "function"
    },
    {
      "inputs": [
        {
          "internalType": "uint256",
          "name": "tokenId",
          "type": "uint256"
        },
        {
          "internalType": "address",
          "name": "spender",
          "type": "address"
        },
        {
          "internalType": "bytes",
          "name": "approveData",
          "type": "bytes"
        }
      ],
      "name": "approve",
      "outputs": [],
      "stateMutability": "nonpayable",
      "type": "function"
    },
    {
      "inputs": [
        {
          "internalType": "uint256",
          "name": "tokenId",
          "type": "uint256"
        },
        {
          "internalType": "contract IERC20",
          "name": "asset",
          "type": "address"
        }
      ],
      "name": "burn",
      "outputs": [],
      "stateMutability": "nonpayable",
      "type": "function"
    },
    {
      "inputs": [
        {
          "internalType": "uint256",
          "name": "tokenId",
          "type": "uint256"
        },
        {
          "internalType": "contract IERC20",
          "name": "asset",
          "type": "address"
        },
        {
          "internalType": "uint256",
          "name": "amount",
          "type": "uint256"
        }
      ],
      "name": "buy",
      "outputs": [],
      "stateMutability": "payable",
      "type": "function"
    },
    {
      "inputs": [
        {
          "internalType": "address payable",
          "name": "receiver",
          "type": "address"
        },
        {
          "internalType": "contract IERC20",
          "name": "asset",
          "type": "address"
        }
      ],
      "name": "collect",
      "outputs": [],
      "stateMutability": "nonpayable",
      "type": "function"
    },
    {
      "inputs": [
        {
          "internalType": "contract IERC20",
          "name": "",
          "type": "address"
        }
      ],
      "name": "feesCollected",
      "outputs": [
        {
          "internalType": "uint256",
          "name": "",
          "type": "uint256"
        }
      ],
      "stateMutability": "view",
      "type": "function"
    },
    {
      "inputs": [
        {
          "internalType": "bytes32",
          "name": "role",
          "type": "bytes32"
        }
      ],
      "name": "getRoleAdmin",
      "outputs": [
        {
          "internalType": "bytes32",
          "name": "",
          "type": "bytes32"
        }
      ],
      "stateMutability": "view",
      "type": "function"
    },
    {
      "inputs": [
        {
          "internalType": "bytes32",
          "name": "role",
          "type": "bytes32"
        },
        {
          "internalType": "uint256",
          "name": "index",
          "type": "uint256"
        }
      ],
      "name": "getRoleMember",
      "outputs": [
        {
          "internalType": "address",
          "name": "",
          "type": "address"
        }
      ],
      "stateMutability": "view",
      "type": "function"
    },
    {
      "inputs": [
        {
          "internalType": "bytes32",
          "name": "role",
          "type": "bytes32"
        }
      ],
      "name": "getRoleMemberCount",
      "outputs": [
        {
          "internalType": "uint256",
          "name": "",
          "type": "uint256"
        }
      ],
      "stateMutability": "view",
      "type": "function"
    },
    {
      "inputs": [
        {
          "internalType": "bytes32",
          "name": "role",
          "type": "bytes32"
        },
        {
          "internalType": "address",
          "name": "account",
          "type": "address"
        }
      ],
      "name": "grantRole",
      "outputs": [],
      "stateMutability": "nonpayable",
      "type": "function"
    },
    {
      "inputs": [
        {
          "internalType": "bytes32",
          "name": "role",
          "type": "bytes32"
        },
        {
          "internalType": "address",
          "name": "account",
          "type": "address"
        }
      ],
      "name": "hasRole",
      "outputs": [
        {
          "internalType": "bool",
          "name": "",
          "type": "bool"
        }
      ],
      "stateMutability": "view",
      "type": "function"
    },
    {
      "inputs": [],
      "name": "initialize",
      "outputs": [],
      "stateMutability": "nonpayable",
      "type": "function"
    },
    {
      "inputs": [
        {
          "internalType": "uint256",
          "name": "tokenId",
          "type": "uint256"
        },
        {
          "internalType": "address",
          "name": "account",
          "type": "address"
        }
      ],
      "name": "isApproved",
      "outputs": [
        {
          "internalType": "bool",
          "name": "",
          "type": "bool"
        }
      ],
      "stateMutability": "view",
      "type": "function"
    },
    {
      "inputs": [
        {
          "internalType": "uint256",
          "name": "tokenId",
          "type": "uint256"
        },
        {
          "internalType": "address",
          "name": "account",
          "type": "address"
        }
      ],
      "name": "isOwner",
      "outputs": [
        {
          "internalType": "bool",
          "name": "",
          "type": "bool"
        }
      ],
      "stateMutability": "view",
      "type": "function"
    },
    {
      "inputs": [
        {
          "internalType": "uint256",
          "name": "",
          "type": "uint256"
        }
      ],
      "name": "lastPrice",
      "outputs": [
        {
          "internalType": "uint256",
          "name": "",
          "type": "uint256"
        }
      ],
      "stateMutability": "view",
      "type": "function"
    },
    {
      "inputs": [
        {
          "internalType": "uint256",
          "name": "tokenId",
          "type": "uint256"
        }
      ],
      "name": "level",
      "outputs": [
        {
          "internalType": "uint256",
          "name": "i",
          "type": "uint256"
        }
      ],
      "stateMutability": "pure",
      "type": "function"
    },
    {
      "inputs": [
        {
          "internalType": "contract IERC20",
          "name": "asset",
          "type": "address"
        },
        {
          "internalType": "uint256",
          "name": "amount",
          "type": "uint256"
        }
      ],
      "name": "mint",
      "outputs": [],
      "stateMutability": "payable",
      "type": "function"
    },
    {
      "inputs": [],
      "name": "nextNonce",
      "outputs": [
        {
          "internalType": "uint256",
          "name": "",
          "type": "uint256"
        }
      ],
      "stateMutability": "view",
      "type": "function"
    },
    {
      "inputs": [],
      "name": "pause",
      "outputs": [],
      "stateMutability": "nonpayable",
      "type": "function"
    },
    {
      "inputs": [],
      "name": "paused",
      "outputs": [
        {
          "internalType": "bool",
          "name": "",
          "type": "bool"
        }
      ],
      "stateMutability": "view",
      "type": "function"
    },
    {
      "inputs": [
        {
          "internalType": "uint256",
          "name": "tokenId",
          "type": "uint256"
        },
        {
          "internalType": "address",
          "name": "spender",
          "type": "address"
        },
        {
          "internalType": "uint8",
          "name": "v",
          "type": "uint8"
        },
        {
          "internalType": "bytes32",
          "name": "r",
          "type": "bytes32"
        },
        {
          "internalType": "bytes32",
          "name": "s",
          "type": "bytes32"
        }
      ],
      "name": "permit",
      "outputs": [],
      "stateMutability": "nonpayable",
      "type": "function"
    },
    {
      "inputs": [
        {
          "internalType": "bytes32",
          "name": "role",
          "type": "bytes32"
        },
        {
          "internalType": "address",
          "name": "account",
          "type": "address"
        }
      ],
      "name": "renounceRole",
      "outputs": [],
      "stateMutability": "nonpayable",
      "type": "function"
    },
    {
      "inputs": [
        {
          "internalType": "bytes32",
          "name": "role",
          "type": "bytes32"
        },
        {
          "internalType": "address",
          "name": "account",
          "type": "address"
        }
      ],
      "name": "revokeRole",
      "outputs": [],
      "stateMutability": "nonpayable",
      "type": "function"
    },
    {
      "inputs": [
        {
          "internalType": "bytes4",
          "name": "interfaceId",
          "type": "bytes4"
        }
      ],
      "name": "supportsInterface",
      "outputs": [
        {
          "internalType": "bool",
          "name": "",
          "type": "bool"
        }
      ],
      "stateMutability": "view",
      "type": "function"
    },
    {
      "inputs": [
        {
          "internalType": "uint256",
          "name": "tokenId",
          "type": "uint256"
        },
        {
          "internalType": "address",
          "name": "receiver",
          "type": "address"
        },
        {
          "internalType": "bytes",
          "name": "transferData",
          "type": "bytes"
        }
      ],
      "name": "transfer",
      "outputs": [],
      "stateMutability": "nonpayable",
      "type": "function"
    },
    {
      "inputs": [],
      "name": "unpause",
      "outputs": [],
      "stateMutability": "nonpayable",
      "type": "function"
    },
    {
      "stateMutability": "payable",
      "type": "receive"
    }
  ],
  "bytecode": "0x60a060405234801561001057600080fd5b506002805460ff19169055604080517f8b73c3c69bb8fe3d512ecc4cf759cc79239f7b179b0ffacaa9a75d522b39400f602082018190527f926d7ccdbde91cf13aa47f5cd6f67c1ae6a3030676f6eb6be832861c18aade6d9282018390527fc89efdaa54c0f20c7adf612882df0950f5a951637e0307cdcb4c672f298b8bc6606083018190524660808401523060a084015290929160c00160408051601f1981840301815291905280516020909101206080526101086001604051694f574e45525f524f4c4560b01b6020820152602a8101829052600090604a01604051602081830303815290604052805190602001209050919050565b505050506080516139f261012e600039600081816103e201526118ff01526139f26000f3fe6080604052600436106102515760003560e01c80635c975abb11610138578063a217fddf116100b0578063d547741f1161007f578063da3e0ebd11610064578063da3e0ebd1461030f578063e63ab1e914610682578063fcd3533c146106b657600080fd5b8063d547741f1461064c578063d69c3d301461066c57600080fd5b8063a217fddf146105f7578063a51b5ab61461060c578063aa9b49af146104fe578063ca15c8731461062c57600080fd5b80638456cb59116101075780639010d07c116100ec5780639010d07c1461057357806391d1485414610593578063a12ef25e146105d757600080fd5b80638456cb591461054857806389cb03691461055d57600080fd5b80635c975abb146104e65780636d25d802146104fe5780636ff108d0146105135780638129fc1c1461053357600080fd5b806330adf81f116101cb57806340c10f191161019a57806356c316371161017f57806356c31637146104795780635a5d096c146104995780635b2478ea146104b957600080fd5b806340c10f191461043957806342cb1fbc1461044c57600080fd5b806330adf81f1461039c5780633644e515146103d057806336568abe146104045780633f4ba83a1461042457600080fd5b80630b4501fd11610222578063248a9ca311610207578063248a9ca3146103395780632afaca20146103695780632f2ff15d1461037c57600080fd5b80630b4501fd1461030f5780631f8d50d61461032457600080fd5b8062c017ca1461025d578062fd94cb1461027f57806301ffc9a7146102bf57806305c58df2146102ef57600080fd5b3661025857005b600080fd5b34801561026957600080fd5b5061027d6102783660046134ca565b6106d6565b005b34801561028b57600080fd5b506102ac61029a36600461337e565b60056020526000908152604090205481565b6040519081526020015b60405180910390f35b3480156102cb57600080fd5b506102df6102da3660046133de565b61093b565b60405190151581526020016102b6565b3480156102fb57600080fd5b506102ac61030a36600461337e565b610997565b34801561031b57600080fd5b506102ac600581565b34801561033057600080fd5b506102ac600a81565b34801561034557600080fd5b506102ac61035436600461337e565b60009081526020819052604090206001015490565b61027d6103773660046135ab565b6109cf565b34801561038857600080fd5b5061027d610397366004613397565b611113565b3480156103a857600080fd5b506102ac7f911ec5f4c7e3c63f59e27e8c01877741aaea0989940df7306917732269ba948c81565b3480156103dc57600080fd5b506102ac7f000000000000000000000000000000000000000000000000000000000000000081565b34801561041057600080fd5b5061027d61041f366004613397565b61113a565b34801561043057600080fd5b5061027d61115c565b61027d610447366004613435565b6111e5565b34801561045857600080fd5b50610461600081565b6040516001600160a01b0390911681526020016102b6565b34801561048557600080fd5b506102df610494366004613397565b6117da565b3480156104a557600080fd5b506102df6104b4366004613397565b611816565b3480156104c557600080fd5b506102ac6104d4366004613418565b60046020526000908152604090205481565b3480156104f257600080fd5b5060025460ff166102df565b34801561050a57600080fd5b506102ac600181565b34801561051f57600080fd5b5061027d61052e366004613553565b611824565b34801561053f57600080fd5b5061027d611a90565b34801561055457600080fd5b5061027d611ad2565b34801561056957600080fd5b506102ac6103e881565b34801561057f57600080fd5b5061046161058e3660046133bc565b611b58565b34801561059f57600080fd5b506102df6105ae366004613397565b6000918252602082815260408084206001600160a01b0393909316845291905290205460ff1690565b3480156105e357600080fd5b5061027d6105f236600461325e565b611b70565b34801561060357600080fd5b506102ac600081565b34801561061857600080fd5b5061027d6106273660046134ca565b611dae565b34801561063857600080fd5b506102ac61064736600461337e565b611f51565b34801561065857600080fd5b5061027d610667366004613397565b611f68565b34801561067857600080fd5b506102ac60035481565b34801561068e57600080fd5b506102ac7f65d7a28e3265b37a6474929f336521b332c1681b933f6cb9f3376673440d862a81565b3480156106c257600080fd5b5061027d6106d1366004613397565b611f72565b60025460ff161561072e5760405162461bcd60e51b815260206004820152601060248201527f5061757361626c653a207061757365640000000000000000000000000000000060448201526064015b60405180910390fd5b3330632f2ff15d61073e87612376565b6040517fffffffff0000000000000000000000000000000000000000000000000000000060e084901b16815260048101919091526001600160a01b0387166024820152604401600060405180830381600087803b15801561079e57600080fd5b505af11580156107b2573d6000803e3d6000fd5b505050506107ca85856352d7d81060e01b86866123ca565b6108165760405162461bcd60e51b815260206004820152601260248201527f42756767794e46543a2072656a656374656400000000000000000000000000006044820152606401610725565b61082085826117da565b61086c5760405162461bcd60e51b815260206004820152601660248201527f42756767794e46543a206e6f7420617070726f766564000000000000000000006044820152606401610725565b3063d547741f61087b876125a4565b6040517fffffffff0000000000000000000000000000000000000000000000000000000060e084901b16815260048101919091526001600160a01b0384166024820152604401600060405180830381600087803b1580156108db57600080fd5b505af11580156108ef573d6000803e3d6000fd5b5050505084846001600160a01b0316826001600160a01b03167fddf252ad1be2c89b69c2b068fc378daa952ba7f163c4a11628f55a4df523b3ef60405160405180910390a45050505050565b60007fffffffff0000000000000000000000000000000000000000000000000000000082167f5a05180f0000000000000000000000000000000000000000000000000000000014806109915750610991826125df565b92915050565b60005b600182161580156109ac575061010081105b156109ca5760019190911c90806109c281613884565b91505061099a565b919050565b60025460ff1615610a225760405162461bcd60e51b815260206004820152601060248201527f5061757361626c653a20706175736564000000000000000000000000000000006044820152606401610725565b6000610a37610a3085612376565b6000611b58565b600085815260056020526040902054909150336001600160a01b038516610b1157833414610aa75760405162461bcd60e51b815260206004820152601f60248201527f42756767794e46543a20616d6f756e742f76616c7565206d69736d61746368006044820152606401610725565b60006103e86005610ab88588613808565b610ac291906137cb565b610acc9190613790565b6001600160a01b038716600090815260046020526040812080549293508392909190610af9908490613778565b90915550610b0990508186613808565b945050610f1a565b6001600160a01b0381163b15610b695760405162461bcd60e51b815260206004820152601760248201527f42756767794e46543a206e6f20666c617368206c6f616e0000000000000000006044820152606401610725565b6040517f23b872dd0000000000000000000000000000000000000000000000000000000081526001600160a01b038281166004830152306024830152604482018690528616906323b872dd90606401602060405180830381600087803b158015610bd257600080fd5b505af1158015610be6573d6000803e3d6000fd5b505050506040513d601f19601f82011682018060405250810190610c0a919061335c565b506000610c178686612676565b905060006103e86005610c2a8685613808565b610c3491906137cb565b610c3e9190613790565b9050600082610c4d83896137cb565b610c579190613790565b6001600160a01b038916600090815260046020526040812080549293508392909190610c84908490613778565b90915550610c9490508188613808565b6040517f095ea7b3000000000000000000000000000000000000000000000000000000008152737a250d5630b4cf539739df2c5dacb4c659f2488d6004820152602481018290529097506001600160a01b0389169063095ea7b390604401602060405180830381600087803b158015610d0c57600080fd5b505af1158015610d20573d6000803e3d6000fd5b505050506040513d601f19601f82011682018060405250810190610d44919061335c565b506040805160028082526060820183526000926020830190803683370190505090508881600081518110610d7a57610d7a61391b565b60200260200101906001600160a01b031690816001600160a01b031681525050737a250d5630b4cf539739df2c5dacb4c659f2488d6001600160a01b031663ad5c46486040518163ffffffff1660e01b815260040160206040518083038186803b158015610de757600080fd5b505afa158015610dfb573d6000803e3d6000fd5b505050506040513d601f19601f82011682018060405250810190610e1f9190613241565b81600181518110610e3257610e3261391b565b6001600160a01b03909216602092830291909101909101526040517f18cbafe5000000000000000000000000000000000000000000000000000000008152737a250d5630b4cf539739df2c5dacb4c659f2488d906318cbafe590610ea3908b9060009086903090429060040161373c565b600060405180830381600087803b158015610ebd57600080fd5b505af1158015610ed1573d6000803e3d6000fd5b505050506040513d6000823e601f3d908101601f19168201604052610ef99190810190613297565b600181518110610f0b57610f0b61391b565b60200260200101519750505050505b600060056001610f2a8588613808565b610f3491906137cb565b610f3e9190613790565b9050610f4a8186613808565b9450610f55836129f9565b851015610fa45760405162461bcd60e51b815260206004820152601460248201527f42756767794e46543a206e6f7420656e6f7567680000000000000000000000006044820152606401610725565b6001600160a01b0384166108fc610fbb8386613778565b6040518115909202916000818181858888f19350505050158015610fe3573d6000803e3d6000fd5b506000610fef88612376565b6040517fd547741f000000000000000000000000000000000000000000000000000000008152600481018290526001600160a01b0387166024820152909150309063d547741f90604401600060405180830381600087803b15801561105357600080fd5b505af1158015611067573d6000803e3d6000fd5b50506040517f2f2ff15d000000000000000000000000000000000000000000000000000000008152600481018490526001600160a01b0386166024820152309250632f2ff15d9150604401600060405180830381600087803b1580156110cc57600080fd5b505af11580156110e0573d6000803e3d6000fd5b50505060008981526005602052604081208054899350909190611104908490613778565b90915550505050505050505050565b61111d8282612a2b565b60008281526001602052604090206111359082612a51565b505050565b6111448282612a66565b60008281526001602052604090206111359082612af2565b60025460ff16156111af5760405162461bcd60e51b815260206004820152601060248201527f5061757361626c653a20706175736564000000000000000000000000000000006044820152606401610725565b7f65d7a28e3265b37a6474929f336521b332c1681b933f6cb9f3376673440d862a6111da8133612b07565b6111e2612b85565b50565b60025460ff16156112385760405162461bcd60e51b815260206004820152601060248201527f5061757361626c653a20706175736564000000000000000000000000000000006044820152606401610725565b33600030611247600143613808565b6003546040517fffffffffffffffffffffffffffffffffffffffff000000000000000000000000606094851b81166020830152924060348201529285901b9091166054830152606882015260880160408051601f198184030181529190528051602090910120905030632f2ff15d6112be83612376565b6040517fffffffff0000000000000000000000000000000000000000000000000000000060e084901b16815260048101919091526001600160a01b0385166024820152604401600060405180830381600087803b15801561131e57600080fd5b505af1158015611332573d6000803e3d6000fd5b5050505060006103e860058561134891906137cb565b6113529190613790565b6001600160a01b03861660009081526004602052604081208054929350839290919061137f908490613778565b90915550506001600160a01b0385166113f2578334146113e15760405162461bcd60e51b815260206004820152601f60248201527f42756767794e46543a20616d6f756e742f76616c7565206d69736d61746368006044820152606401610725565b6113eb8185613808565b9350611779565b6001600160a01b0383163b1561144a5760405162461bcd60e51b815260206004820152601760248201527f42756767794e46543a206e6f20666c617368206c6f616e0000000000000000006044820152606401610725565b6040517f23b872dd0000000000000000000000000000000000000000000000000000000081526001600160a01b038481166004830152306024830152604482018690528616906323b872dd90606401602060405180830381600087803b1580156114b357600080fd5b505af11580156114c7573d6000803e3d6000fd5b505050506040513d601f19601f820116820180604052508101906114eb919061335c565b506114f68185613808565b6040517f095ea7b3000000000000000000000000000000000000000000000000000000008152737a250d5630b4cf539739df2c5dacb4c659f2488d6004820152602481018290529094506001600160a01b0386169063095ea7b390604401602060405180830381600087803b15801561156e57600080fd5b505af1158015611582573d6000803e3d6000fd5b505050506040513d601f19601f820116820180604052508101906115a6919061335c565b5060408051600280825260608201835260009260208301908036833701905050905085816000815181106115dc576115dc61391b565b60200260200101906001600160a01b031690816001600160a01b031681525050737a250d5630b4cf539739df2c5dacb4c659f2488d6001600160a01b031663ad5c46486040518163ffffffff1660e01b815260040160206040518083038186803b15801561164957600080fd5b505afa15801561165d573d6000803e3d6000fd5b505050506040513d601f19601f820116820180604052508101906116819190613241565b816001815181106116945761169461391b565b6001600160a01b03909216602092830291909101909101526040517f18cbafe5000000000000000000000000000000000000000000000000000000008152737a250d5630b4cf539739df2c5dacb4c659f2488d906318cbafe59061170590889060009086903090429060040161373c565b600060405180830381600087803b15801561171f57600080fd5b505af1158015611733573d6000803e3d6000fd5b505050506040513d6000823e601f3d908101601f1916820160405261175b9190810190613297565b60018151811061176d5761176d61391b565b60200260200101519450505b6000828152600560205260408120859055600380549161179883613884565b90915550506040516001600160a01b0384169083907ff3cea5493d790af0133817606f7350a91d7f154ea52eaa79d179d4d231e5010290600090a35050505050565b600061180f6117e8846125a4565b6000908152602081815260408083206001600160a01b038716845290915290205460ff1690565b9392505050565b600061180f6117e884612376565b60025460ff16156118775760405162461bcd60e51b815260206004820152601060248201527f5061757361626c653a20706175736564000000000000000000000000000000006044820152606401610725565b604080517f911ec5f4c7e3c63f59e27e8c01877741aaea0989940df7306917732269ba948c60208201529081018690526001600160a01b038516606082015260009060800160408051601f198184030181529082905280516020918201207f1901000000000000000000000000000000000000000000000000000000000000918301919091527f0000000000000000000000000000000000000000000000000000000000000000602283015260428201819052915060009060620160408051601f198184030181528282528051602091820120600080855291840180845281905260ff89169284019290925260608301879052608083018690529092509060019060a0016020604051602081039080840390855afa15801561199d573d6000803e3d6000fd5b5050506020604051035190506119b38882611816565b6119ff5760405162461bcd60e51b815260206004820152601360248201527f42756767794e46543a206e6f74206f776e6572000000000000000000000000006044820152606401610725565b30632f2ff15d611a0e8a6125a4565b6040517fffffffff0000000000000000000000000000000000000000000000000000000060e084901b16815260048101919091526001600160a01b038a166024820152604401600060405180830381600087803b158015611a6e57600080fd5b505af1158015611a82573d6000803e3d6000fd5b505050505050505050505050565b611a9b600030612c3f565b611aa6600033612c3f565b611ad07f65d7a28e3265b37a6474929f336521b332c1681b933f6cb9f3376673440d862a33612c3f565b565b60025460ff1615611b255760405162461bcd60e51b815260206004820152601060248201527f5061757361626c653a20706175736564000000000000000000000000000000006044820152606401610725565b7f65d7a28e3265b37a6474929f336521b332c1681b933f6cb9f3376673440d862a611b508133612b07565b6111e2612c49565b600082815260016020526040812061180f9083612cef565b60025460ff1615611bc35760405162461bcd60e51b815260206004820152601060248201527f5061757361626c653a20706175736564000000000000000000000000000000006044820152606401610725565b6000611bcf8133612b07565b6001600160a01b038216611c93576001600160a01b0382811660009081526004602052604080822054905191928616918381818185875af1925050503d8060008114611c37576040519150601f19603f3d011682016040523d82523d6000602084013e611c3c565b606091505b5050905080611c8d5760405162461bcd60e51b815260206004820152601960248201527f42756767794e46543a207472616e73666572206661696c6564000000000000006044820152606401610725565b50611d40565b6001600160a01b038281166000818152600460208190526040918290205491517fa9059cbb0000000000000000000000000000000000000000000000000000000081529387169084015260248301529063a9059cbb90604401602060405180830381600087803b158015611d0657600080fd5b505af1158015611d1a573d6000803e3d6000fd5b505050506040513d601f19601f82011682018060405250810190611d3e919061335c565b505b6001600160a01b03828116600081815260046020908152604091829020549151918252928616927f1314fd112a381beea61539dbd21ec04afcff2662ac7d1b83273aade1f53d1b97910160405180910390a3506001600160a01b031660009081526004602052604081205550565b611db784612376565b611dc18133612b07565b60025460ff1615611e145760405162461bcd60e51b815260206004820152601060248201527f5061757361626c653a20706175736564000000000000000000000000000000006044820152606401610725565b611e4185857fdab9c5dd0000000000000000000000000000000000000000000000000000000086866123ca565b611e8d5760405162461bcd60e51b815260206004820152601260248201527f42756767794e46543a2072656a656374656400000000000000000000000000006044820152606401610725565b30632f2ff15d611e9c876125a4565b6040517fffffffff0000000000000000000000000000000000000000000000000000000060e084901b16815260048101919091526001600160a01b0387166024820152604401600060405180830381600087803b158015611efc57600080fd5b505af1158015611f10573d6000803e3d6000fd5b50506040516001600160a01b03871692508791507f47ad3e4b0f4bdbe3ac08708bbc45053d2ff616911b39e65563fd9bd78190964590600090a35050505050565b600081815260016020526040812061099190612cfb565b6111448282612d05565b611f7b82612376565b611f858133612b07565b60025460ff1615611fd85760405162461bcd60e51b815260206004820152601060248201527f5061757361626c653a20706175736564000000000000000000000000000000006044820152606401610725565b333063d547741f611fe886612376565b6040517fffffffff0000000000000000000000000000000000000000000000000000000060e084901b16815260048101919091526001600160a01b0384166024820152604401600060405180830381600087803b15801561204857600080fd5b505af115801561205c573d6000803e3d6000fd5b505050506001600160a01b038316612120576000848152600560205260408082205490516001600160a01b03841691908381818185875af1925050503d80600081146120c4576040519150601f19603f3d011682016040523d82523d6000602084013e6120c9565b606091505b505090508061211a5760405162461bcd60e51b815260206004820152601960248201527f42756767794e46543a207472616e73666572206661696c6564000000000000006044820152606401610725565b5061233a565b6001600160a01b0381163b156121785760405162461bcd60e51b815260206004820152601760248201527f42756767794e46543a206e6f20666c617368206c6f616e0000000000000000006044820152606401610725565b604080516002808252606082018352600092602083019080368337019050509050737a250d5630b4cf539739df2c5dacb4c659f2488d6001600160a01b031663ad5c46486040518163ffffffff1660e01b815260040160206040518083038186803b1580156121e657600080fd5b505afa1580156121fa573d6000803e3d6000fd5b505050506040513d601f19601f8201168201806040525081019061221e9190613241565b816000815181106122315761223161391b565b60200260200101906001600160a01b031690816001600160a01b03168152505083816001815181106122655761226561391b565b6001600160a01b039092166020928302919091018201526000868152600590915260408082205490517f7ff36ab5000000000000000000000000000000000000000000000000000000008152737a250d5630b4cf539739df2c5dacb4c659f2488d92637ff36ab592916122e191908690889042906004016136d4565b6000604051808303818588803b1580156122fa57600080fd5b505af115801561230e573d6000803e3d6000fd5b50505050506040513d6000823e601f3d908101601f191682016040526123379190810190613297565b50505b6040516001600160a01b0382169085907ff6554c3a5d28e08c120b5a69c7edbaf52f935bd2596a60b8a18e282cd257cddb90600090a350505050565b6040517f4f574e45525f524f4c45000000000000000000000000000000000000000000006020820152602a8101829052600090604a015b604051602081830303815290604052805190602001209050919050565b60006001600160a01b0385163b6123e35750600161259b565b8161253157600080866001600160a01b0316868960405160240161240991815260200190565b60408051601f198184030181529181526020820180517bffffffffffffffffffffffffffffffffffffffffffffffffffffffff167fffffffff000000000000000000000000000000000000000000000000000000009094169390931790925290516124749190613637565b6000604051808303816000865af19150503d80600081146124b1576040519150601f19603f3d011682016040523d82523d6000602084013e6124b6565b606091505b50915091508180156124c9575080516004145b80156125285750857bffffffffffffffffffffffffffffffffffffffffffffffffffffffff19168180602001905181019061250491906133fb565b7fffffffff0000000000000000000000000000000000000000000000000000000016145b9250505061259b565b6000856001600160a01b0316848460405161254d929190613627565b6000604051808303816000865af19150503d806000811461258a576040519150601f19603f3d011682016040523d82523d6000602084013e61258f565b606091505b5090925061259b915050565b95945050505050565b6040517f415050524f5645445f524f4c45000000000000000000000000000000000000006020820152602d8101829052600090604d016123ad565b60007fffffffff0000000000000000000000000000000000000000000000000000000082167f7965db0b00000000000000000000000000000000000000000000000000000000148061099157507f01ffc9a7000000000000000000000000000000000000000000000000000000007fffffffff00000000000000000000000000000000000000000000000000000000831614610991565b600080737a250d5630b4cf539739df2c5dacb4c659f2488d6001600160a01b031663c45a01556040518163ffffffff1660e01b815260040160206040518083038186803b1580156126c657600080fd5b505afa1580156126da573d6000803e3d6000fd5b505050506040513d601f19601f820116820180604052508101906126fe9190613241565b90506000816001600160a01b031663e6a43905737a250d5630b4cf539739df2c5dacb4c659f2488d6001600160a01b031663ad5c46486040518163ffffffff1660e01b815260040160206040518083038186803b15801561275e57600080fd5b505afa158015612772573d6000803e3d6000fd5b505050506040513d601f19601f820116820180604052508101906127969190613241565b6040517fffffffff0000000000000000000000000000000000000000000000000000000060e084901b1681526001600160a01b039182166004820152908816602482015260440160206040518083038186803b1580156127f557600080fd5b505afa158015612809573d6000803e3d6000fd5b505050506040513d601f19601f8201168201806040525081019061282d9190613241565b9050600080826001600160a01b0316630902f1ac6040518163ffffffff1660e01b815260040160606040518083038186803b15801561286b57600080fd5b505afa15801561287f573d6000803e3d6000fd5b505050506040513d601f19601f820116820180604052508101906128a39190613461565b5091509150826001600160a01b031663d21220a76040518163ffffffff1660e01b815260040160206040518083038186803b1580156128e157600080fd5b505afa1580156128f5573d6000803e3d6000fd5b505050506040513d601f19601f820116820180604052508101906129199190613241565b6001600160a01b0316876001600160a01b0316141561293457905b6040517f054d50d4000000000000000000000000000000000000000000000000000000008152600481018790526dffffffffffffffffffffffffffff808416602483015282166044820152737a250d5630b4cf539739df2c5dacb4c659f2488d9063054d50d49060640160206040518083038186803b1580156129b657600080fd5b505afa1580156129ca573d6000803e3d6000fd5b505050506040513d601f19601f820116820180604052508101906129ee91906134b1565b979650505050505050565b6000600a612a08816001613778565b600084815260056020526040902054612a2191906137cb565b6109919190613790565b600082815260208190526040902060010154612a478133612b07565b6111358383612d2b565b600061180f836001600160a01b038416612de7565b6001600160a01b0381163314612ae45760405162461bcd60e51b815260206004820152602f60248201527f416363657373436f6e74726f6c3a2063616e206f6e6c792072656e6f756e636560448201527f20726f6c657320666f722073656c6600000000000000000000000000000000006064820152608401610725565b612aee8282612e36565b5050565b600061180f836001600160a01b038416612ed3565b6000828152602081815260408083206001600160a01b038516845290915290205460ff16612aee57612b43816001600160a01b03166014612fc6565b612b4e836020612fc6565b604051602001612b5f929190613653565b60408051601f198184030181529082905262461bcd60e51b825261072591600401613709565b60025460ff16612bd75760405162461bcd60e51b815260206004820152601460248201527f5061757361626c653a206e6f74207061757365640000000000000000000000006044820152606401610725565b600280547fffffffffffffffffffffffffffffffffffffffffffffffffffffffffffffff001690557f5db9ee0a495bf2e6ff9c91a7834c1ba4fdd244a5e8aa4e537bd38aeae4b073aa335b6040516001600160a01b03909116815260200160405180910390a1565b61111d82826131ef565b60025460ff1615612c9c5760405162461bcd60e51b815260206004820152601060248201527f5061757361626c653a20706175736564000000000000000000000000000000006044820152606401610725565b600280547fffffffffffffffffffffffffffffffffffffffffffffffffffffffffffffff001660011790557f62e78cea01bee320cd4e420270b5ea74000d11b0c9f74754ebdbfc544b05a258612c223390565b600061180f83836131f9565b6000610991825490565b600082815260208190526040902060010154612d218133612b07565b6111358383612e36565b6000828152602081815260408083206001600160a01b038516845290915290205460ff16612aee576000828152602081815260408083206001600160a01b0385168452909152902080547fffffffffffffffffffffffffffffffffffffffffffffffffffffffffffffff00166001179055612da33390565b6001600160a01b0316816001600160a01b0316837f2f8788117e7eff1d82e926ec794901d17c78024a50270940304540a733656f0d60405160405180910390a45050565b6000818152600183016020526040812054612e2e57508154600181810184556000848152602080822090930184905584548482528286019093526040902091909155610991565b506000610991565b6000828152602081815260408083206001600160a01b038516845290915290205460ff1615612aee576000828152602081815260408083206001600160a01b038516808552925280832080547fffffffffffffffffffffffffffffffffffffffffffffffffffffffffffffff0016905551339285917ff6391f5c32d9c69d2a47ea670b442974b53935d1edc7fd64eb21e047a839171b9190a45050565b60008181526001830160205260408120548015612fbc576000612ef7600183613808565b8554909150600090612f0b90600190613808565b9050818114612f70576000866000018281548110612f2b57612f2b61391b565b9060005260206000200154905080876000018481548110612f4e57612f4e61391b565b6000918252602080832090910192909255918252600188019052604090208390555b8554869080612f8157612f816138ec565b600190038181906000526020600020016000905590558560010160008681526020019081526020016000206000905560019350505050610991565b6000915050610991565b60606000612fd58360026137cb565b612fe0906002613778565b67ffffffffffffffff811115612ff857612ff861394a565b6040519080825280601f01601f191660200182016040528015613022576020820181803683370190505b5090507f3000000000000000000000000000000000000000000000000000000000000000816000815181106130595761305961391b565b60200101907effffffffffffffffffffffffffffffffffffffffffffffffffffffffffffff1916908160001a9053507f7800000000000000000000000000000000000000000000000000000000000000816001815181106130bc576130bc61391b565b60200101907effffffffffffffffffffffffffffffffffffffffffffffffffffffffffffff1916908160001a90535060006130f88460026137cb565b613103906001613778565b90505b60018111156131a0577f303132333435363738396162636465660000000000000000000000000000000085600f16601081106131445761314461391b565b1a60f81b82828151811061315a5761315a61391b565b60200101907effffffffffffffffffffffffffffffffffffffffffffffffffffffffffffff1916908160001a90535060049490941c936131998161384f565b9050613106565b50831561180f5760405162461bcd60e51b815260206004820181905260248201527f537472696e67733a20686578206c656e67746820696e73756666696369656e746044820152606401610725565b612aee8282612d2b565b60008260000182815481106132105761321061391b565b9060005260206000200154905092915050565b80516dffffffffffffffffffffffffffff811681146109ca57600080fd5b60006020828403121561325357600080fd5b815161180f81613979565b6000806040838503121561327157600080fd5b823561327c81613979565b9150602083013561328c81613979565b809150509250929050565b600060208083850312156132aa57600080fd5b825167ffffffffffffffff808211156132c257600080fd5b818501915085601f8301126132d657600080fd5b8151818111156132e8576132e861394a565b8060051b604051601f19603f8301168101818110858211171561330d5761330d61394a565b604052828152858101935084860182860187018a101561332c57600080fd5b600095505b8386101561334f578051855260019590950194938601938601613331565b5098975050505050505050565b60006020828403121561336e57600080fd5b8151801515811461180f57600080fd5b60006020828403121561339057600080fd5b5035919050565b600080604083850312156133aa57600080fd5b82359150602083013561328c81613979565b600080604083850312156133cf57600080fd5b50508035926020909101359150565b6000602082840312156133f057600080fd5b813561180f8161398e565b60006020828403121561340d57600080fd5b815161180f8161398e565b60006020828403121561342a57600080fd5b813561180f81613979565b6000806040838503121561344857600080fd5b823561345381613979565b946020939093013593505050565b60008060006060848603121561347657600080fd5b61347f84613223565b925061348d60208501613223565b9150604084015163ffffffff811681146134a657600080fd5b809150509250925092565b6000602082840312156134c357600080fd5b5051919050565b600080600080606085870312156134e057600080fd5b8435935060208501356134f281613979565b9250604085013567ffffffffffffffff8082111561350f57600080fd5b818701915087601f83011261352357600080fd5b81358181111561353257600080fd5b88602082850101111561354457600080fd5b95989497505060200194505050565b600080600080600060a0868803121561356b57600080fd5b85359450602086013561357d81613979565b9350604086013560ff8116811461359357600080fd5b94979396509394606081013594506080013592915050565b6000806000606084860312156135c057600080fd5b8335925060208401356135d281613979565b929592945050506040919091013590565b600081518084526020808501945080840160005b8381101561361c5781516001600160a01b0316875295820195908201906001016135f7565b509495945050505050565b8183823760009101908152919050565b6000825161364981846020870161381f565b9190910192915050565b7f416363657373436f6e74726f6c3a206163636f756e742000000000000000000081526000835161368b81601785016020880161381f565b7f206973206d697373696e6720726f6c652000000000000000000000000000000060179184019182015283516136c881602884016020880161381f565b01602801949350505050565b8481526080602082015260006136ed60808301866135e3565b6001600160a01b03949094166040830152506060015292915050565b602081526000825180602084015261372881604085016020870161381f565b601f01601f19169190910160400192915050565b85815284602082015260a06040820152600061375b60a08301866135e3565b6001600160a01b0394909416606083015250608001529392505050565b6000821982111561378b5761378b6138bd565b500190565b6000826137c6577f4e487b7100000000000000000000000000000000000000000000000000000000600052601260045260246000fd5b500490565b6000817fffffffffffffffffffffffffffffffffffffffffffffffffffffffffffffffff0483118215151615613803576138036138bd565b500290565b60008282101561381a5761381a6138bd565b500390565b60005b8381101561383a578181015183820152602001613822565b83811115613849576000848401525b50505050565b60008161385e5761385e6138bd565b507fffffffffffffffffffffffffffffffffffffffffffffffffffffffffffffffff0190565b60007fffffffffffffffffffffffffffffffffffffffffffffffffffffffffffffffff8214156138b6576138b66138bd565b5060010190565b7f4e487b7100000000000000000000000000000000000000000000000000000000600052601160045260246000fd5b7f4e487b7100000000000000000000000000000000000000000000000000000000600052603160045260246000fd5b7f4e487b7100000000000000000000000000000000000000000000000000000000600052603260045260246000fd5b7f4e487b7100000000000000000000000000000000000000000000000000000000600052604160045260246000fd5b6001600160a01b03811681146111e257600080fd5b7fffffffff00000000000000000000000000000000000000000000000000000000811681146111e257600080fdfea26469706673582212207294785274d142acf90d7ac7007e6a8def0b746abe6aba943b49537ad5619b8664736f6c63430008070033",
  "linkReferences": {},
  "deployedLinkReferences": {}
}